:020000040800F2
:10000000B004002045010008850A00080B0700081D
:10001000810A000895050008FF190008000000008B
:10002000000000000000000000000000C5110008F2
:10003000D905000800000000AD100008D912000822
:100040005F0100085F0100085F0100085F01000810
:100050005F0100085F0100085F0100085F01000800
:100060005F0100085F0100085F0100085F010008F0
:100070005F0100085F0100085F0100085F010008E0
:100080005F0100085F0100085F0100085F010008D0
:100090005F0100085F0100085F0100085F010008C0
:1000A0005F010008AD1300085F0100085F01000850
:1000B0005F0100085F0100085F0100085F010008A0
:1000C0005F0100085F0100085F0100085F01000890
:1000D0005F0100085D1700085F0100088D17000828
:1000E0005F0100085F0100085F0100085F01000870
:1000F0005F0100085F0100085F0100085F01000860
:100100005F0100085F0100085F0100085F0100084F
:100110005F0100085F0100085F0100085F0100083F
:100120005F0100085F0100085F0100085F0100082F
:10013000DFF80CD000F01CFA00480047B11B0008A3
:10014000B00400200648804706480047FEE7FEE767
:10015000FEE7FEE7FEE7FEE7FEE7FEE7FEE7FEE777
:10016000DD120008310100082DE9FE4F804681EACA
:100170000300C00F0C46009021F0004123F0004521
:10018000B8EB0200A94105D24046214690461C46E4
:100190000B46024623F00040104347D0270DC7F31B
:1001A0000A00C3F30A510290401A019040286BDA0A
:1001B000C3F3130040F4801B0098924620B1002343
:1001C000D2EB030A63EB0B0B01985946C0F14002D6
:1001D000504600F03FF906460D4650465946019AF2
:1001E00000F057F910EB08006141002487EA115232
:1001F00084EAE7731A4340D0009A62B3019A012A55
:100200004FEA075215DC001B61EB02014FF0004280
:1002100002EA0752CDE90042001C41F58011324646
:100220002B4600F057F903B0BDE8F08F4046214659
:10023000F9E7001B61EB0201001C41F58013001877
:100240005B412018A2F5001747EB030140EAD57087
:10025000B6196D4111E06D084FEA360645EAC075E2
:100260004FEA0752001B61EB0201001C41F58011AF
:1002700049084FEA30000019514132462B4603B07D
:10028000BDE8F04F00F017B90098012240000023AC
:10029000D0EB020263EBE073009821464FEAE07472
:1002A000B8EB000061EB0401E9E783F000435BE792
:1002B00081F0004158E72DE9FE4F81EA030404F084
:1002C000004421F0004100944FF0000B23F0004364
:1002D00050EA01045ED052EA03045BD0C3F30A542F
:1002E000C1F30A552C44A4F2F3340194A0FB025448
:1002F000C1F3130141F48011C3F3130343F48013DA
:1003000001FB024400FB034E840A970A44EA81542D
:1003100047EA8357A4FB076802958D0A05FB07850A
:100320004FEA932C04FB0C542705029D4FEA065814
:1003300047EA1637B5EB08056EEB070C870E920EF1
:1003400047EA811742EA8312A7FB0201B6EB0B01D1
:1003500064EB00042B0D43EA0C335E1844EB1C5095
:10036000DA465146E7FB0201C5F313044FEA0B33AB
:1003700043EA14534FEA0432019C43EA0603A4F112
:100380000C040294009CCDE900B400F0A3F803B083
:10039000BDE8F08F00200146F9E70EB540F2334189
:1003A00002910021CDE900110A460B4600F092F8B7
:1003B00003B000BD70B5C1F30A5201F0004500243E
:1003C000C1F3130140F2FF3341F480119A4201DA84
:1003D000002070BD40F233439A42A2F2334203DC64
:1003E000524200F046F800E090402C43F1D04042E9
:1003F00070BD000030B5041E71F1000404DB4FF045
:100400000044404264EB0101141E73F1000405DB5B
:100410001C464FF00043524263EB04038B4208BF7B
:10042000824230BD30B5041E71F1000404DB4FF090
:100430000044404264EB0101141E73F1000405DB2B
:100440001C464FF00043524263EB0403994208BF3D
:10045000904230BD202A04DB203A00FA02F100204D
:1004600070479140C2F1200320FA03F319439040F2
:100470007047202A04DB203A21FA02F0002170475D
:1004800021FA02F3D040C2F12002914008431946FC
:100490007047202A06DBCB17203A41FA02F043EAE4
:1004A000E07306E041FA02F3D040C2F1200291402D
:1004B00008431946704710B5141E73F1000408DA9A
:1004C000401C41F1000192185B411A4301D120F018
:1004D000010010BD2DE9F04D92469B4611B1B1FAD5
:1004E00081F202E0B0FA80F220329046FFF7B2FFCC
:1004F00004460F4640EA0A0041EA0B0153465A46B9
:10050000084313D0114653EA010019D0C8F1400244
:100510005046FFF7AEFF05460E4650465946424646
:10052000FFF798FF084305D0012004E02046394634
:10053000BDE8F08D0020054346EAE0762C433743C2
:100540000A986305E40AA0EB08000022FD0A44EAC9
:1005500047540A3002D500200146E9E70105101989
:100560006941DDE9084500196941BDE8F04DA2E7A0
:10057000064C074D06E0E06840F0010394E80700F0
:1005800098471034AC42F6D3FFF7D6FDB8270008E1
:10059000D827000800BFFEE708B50121082000F0B9
:1005A00097FD4FF44040ADF8000010208DF8030097
:1005B00003208DF802006946064800F00EF84FF45B
:1005C0008041044800F09FF84FF40041014800F0DA
:1005D00098F808BD000C014070472DE9F041024633
:1005E00000250026002000230024002791F803C0E6
:1005F0000CF00F0591F803C00CF0100CBCF1000FCB
:1006000003D091F802C04CEA050591F800C0BCF196
:10061000000F31D0146800202BE04FF0010C0CFAD1
:1006200000F3B1F800C00CEA03069E4220D183001B
:100630004FF00F0C0CFA03F7BC4305FA03FC4CEA2D
:10064000040491F803C0BCF1280F06D14FF0010C4F
:100650000CFA00FCC2F814C00AE091F803C0BCF127
:10066000480F05D14FF0010C0CFA00FCC2F810C085
:10067000401C0828D1D31460B1F800C0BCF1FF0FB2
:1006800034DD546800202EE000F1080C4FF0010822
:1006900008FA0CF3B1F800C00CEA03069E4221D11F
:1006A00083004FF00F0C0CFA03F7BC4305FA03FC70
:1006B0004CEA040491F803C0BCF1280F05D100F105
:1006C000080C08FA0CF8C2F8148091F803C0BCF1C9
:1006D000480F07D100F1080C4FF0010808FA0CF898
:1006E000C2F81080401C0828CED35460BDE8F081C9
:1006F0000246002093680B400BB1012000E000206F
:100700007047416170470161704700BFFEE700001C
:1007100010B54FF400510948FFF7F5FF4FF4805131
:100720000648FFF7F0FF4FF480510448FFF7E9FF58
:100730004FF400510148FFF7E4FF10BD000C0140E9
:1007400010B54FF400510748FFF7DDFF4FF480511B
:100750000448FFF7D6FF4FF480510248FFF7D3FF5C
:1007600010BD0000000C014010B54FF400510448CA
:10077000FFF7C9FF4FF400510148FFF7C2FF10BD5A
:10078000000C014010B5044614B101202E49087038
:100790002D480078002839D04FF400712B48FFF71E
:1007A000A7FF78B14FF480712848FFF7A1FF48B147
:1007B00080212648FFF79CFF20B140212348FFF706
:1007C00097FF18BB0A2001F0A9F900201E49087004
:1007D0004FF400711D48FFF78BFF08B9012010BDD1
:1007E0004FF480711948FFF783FF08B90220F6E73C
:1007F00080211648FFF77CFF08B90320EFE740216E
:100800001248FFF775FFE8B90420E8E74FF40071DC
:100810000E48FFF76DFF01280BD101020B48FFF7CF
:1008200067FF012805D180210848FFF761FF0128F3
:1008300005D040210548FFF75BFF012802D10120C8
:10084000014908700020CAE7340000200010014070
:1008500008B50121102000F03BFC2020ADF800007D
:1008600010208DF8030003208DF802006946194816
:10087000FFF7B3FE20211748FFF743FF4020ADF8F4
:10088000000048208DF8030069461248FFF7A5FED6
:100890008020ADF8000048208DF8030069460D481F
:1008A000FFF79BFE4FF48070ADF8000048208DF8F4
:1008B000030069460748FFF790FE4FF40070ADF85B
:1008C000000028208DF8030069460248FFF785FEE6
:1008D00008BD0000001001407CB534480078FFF7E7
:1008E0005CFD04460B46002131482246CDE900104C
:1008F000304800F05BFBC0F196002F4908602F499B
:100900000878C11700EB9171891078312C4A116079
:10091000102003230090284802210268002000F0E4
:1009200007FA25480068C82809DDC8202249086060
:100930000846008881B2234800F0BCFE13E01E4840
:100940000068642809DA64201B49086008460088AA
:1009500081B21C4800F0AEFE05E01748008881B265
:10096000184800F0A7FE16480068962809DD962072
:10097000134908600846008881B2124800F098FECA
:1009800013E00F480068782809DA78200C490860DD
:100990000846008881B20B4800F08AFE05E008484E
:1009A000008881B2074800F083FE7CBD3F00002034
:1009B000000054405800002050000020400000205B
:1009C0004C0000200008004008B501211C2000F068
:1009D0007FFB3320ADF8000010208DF803000320CA
:1009E0008DF8020069462348FFF7F7FD0320ADF8B4
:1009F000000010208DF8030003208DF802006946E6
:100A00001D48FFF7EAFD1E20ADF8000010208DF80C
:100A1000030003208DF8020069461848FFF7DDFD4A
:100A200001211448FFF76FFE01211348FFF76BFE09
:100A300002211048FFF767FE04211048FFF763FE0C
:100A400008210E48FFF75DFE02210B48FFF75BFE11
:100A500010210A48FFF757FE10210648FFF751FE04
:100A600002210648FFF74DFE20210248FFF749FE0C
:100A700008BD000000080140000C014000100140CA
:100A800000BFFEE77047000070B5002100230F2271
:100A9000C47804B3154C246804F4E064C4F5E0643D
:100AA000210AC1F10403CA40447804FA03F18478AE
:100AB0001440214309010E4C0678A155047804F036
:100AC0001F050124AC4005786D11AD0005F1E0254E
:100AD000C5F8004109E0047804F01F050124AC408A
:100AE000044D0678761145F8264070BD0CED00E007
:100AF00000E400E080E100E002490143024A1160A5
:100B0000704700000000FA050CED00E070B500240D
:100B100018E004F1B000002100F06BF90021084654
:100B200000F067F90021102000F063F9002505E0CE
:100B30000121002000F05DF9681CC5B2802DF7DBB3
:100B4000601CC4B2082CE4DB70BD000008B50121B4
:100B5000082000F0BDFA4FF44050ADF8000010201E
:100B60008DF8030003208DF8020069463C48FFF72A
:100B700034FD4FF440513A48FFF7C5FD4FF448703B
:100B800000F0CCFF0021AE2000F033F90021084630
:100B900000F02FF90021102000F02BF90021402057
:100BA00000F027F90021B02000F023F90021812076
:100BB00000F01FF90021FF2000F01BF90021A12007
:100BC00000F017F90021A62000F013F90021A82059
:100BD00000F00FF900213F2000F00BF90021C820A0
:100BE00000F007F90021D32000F003F900210846A6
:100BF00000F0FFF80021D52000F0FBF80021802054
:100C000000F0F7F80021D82000F0F3F800210520CB
:100C100000F0EFF80021D92000F0EBF80021F120DE
:100C200000F0E7F80021DA2000F0E3F800211220BC
:100C300000F0DFF80021DB2000F0DBF8002130209D
:100C400000F0D7F800218D2000F0D3F80021142007
:100C500000F0CFF80021AF2000F0CBF808BD000075
:100C6000000C014070B504460D4605F1B0000021AE
:100C700000F0BFF8102141EA1410002100F0B9F88B
:100C800004F00F00002100F0B4F870BD2DE9F0472A
:100C900007460E469046994600250024A8F12000FC
:100CA000C5B27F2F02DD0027B01CC6B2B9F1100F0C
:100CB00024D131463846FFF7D5FF002408E004EB85
:100CC0000511194A505C012100F093F8601CC4B270
:100CD000082CF4DB701CC1B23846FFF7C3FF0024B8
:100CE00009E004EB051108310F4A505C012100F0C6
:100CF00080F8601CC4B2082CF3DB12E031463846A1
:100D0000FFF7B0FF00240AE005EB4501074A02EBBC
:100D10004101085D012100F06CF8601CC4B2062C92
:100D2000F2DBBDE8F0870000C8210008A01F000822
:100D30002DE9FF5F074691461E460E9D4FF0000AC3
:100D4000002435E0301B401EC1B20A2001F08CF8AF
:100D5000B9FBF0F00A21B0FBF1F201FB1208BAF185
:100D6000000F14D1701EA04211DDB8F1000F0CD19C
:100D7000AB4605EBDB71491001FB0471C8B22B4691
:100D800020220199FFF782FF10E04FF0010AAB46E5
:100D900005EBDB71491001FB0471C8B208F13001A9
:100DA000CAB22B460199FFF771FF00BF601CC4B2A5
:100DB000B442C7DBBDE8FF9F2DE9F04104460F4672
:100DC0001546984600260FE0AA5D43463946204660
:100DD000FFF75CFF04F10800C4B2782C02DD0024A8
:100DE000B81CC7B2701CC6B2A85D0028ECD1BDE823
:100DF000F08170B504460D461DB1E0B200F046FE2C
:100E000002E0E0B200F02CFE70BD000070B50546B7
:100E10004748007870B9DC2D0CD101204449087096
:100E2000444802780078401C424B1870424820F831
:100E300012507BE03E48007801280ED1F32D0CD1F2
:100E400002203B4908703B4802780078401C394B2F
:100E50001870394820F8125068E0354800780228A8
:100E600025D1344802780078401C324B1870324843
:100E700020F81250184600780A2801DAE82D55D1DA
:100E800003202B49087001202C490870294800785C
:100E9000C01E294911F8100029490870254800781A
:100EA000801E254911F81000264908703EE02048B0
:100EB000007803282BD11F480078401E1E4931F8C6
:100EC0001000E82813D1002240F225511E4800F0FE
:100ED00000FD00201949087016490870144908706F
:100EE000012240F22551184800F0F3FC1EE00020DA
:100EF0000F4908700F490870002405E000200E49D2
:100F000021F81400601CC4B20A2CF7DB0EE00020AC
:100F10000749087007490870002405E000200649C9
:100F200021F81400601CC4B20A2CF7DB70BD00006D
:100F30004900002048000020980000204A000020BE
:100F40003D0000203E0000200038014004480078A9
:100F5000044908700448007804490870704700008C
:100F60003D0000203F0000203E0000204000002007
:100F70000022026042608260C26000210161416122
:100F80008261C261026242628262C2620263426341
:100F90008263C2637047F0B505ACF0CCC0E90A23A8
:100FA000C0E90C45C0E90E67F0BD00002DE9F04F27
:100FB0008BB0824614461D46DDE9146700BFCAE9BE
:100FC0000245CAE90067DAE900834246DAE902B17C
:100FD0005846FFF76AF9CAE90401DAE9068342468E
:100FE000DAE904B15846FFF760F9CDE90201DAE920
:100FF0000E834246FFF75FF9CDE90601DAE908B34F
:101000005A46DAE90C814046FFF755F9CDE902016D
:10101000DAE904834246DAE90AB15846FFF74BF9A8
:10102000CDE90001DDE90223FFF79EF8CDE90401D7
:10103000DDE90623FFF798F8CDE90801DAE9048332
:101040004246DAE908B15846FFF78EF8CAE90801C6
:10105000DAE90401CAE906010022124BDAE9088143
:101060004046FFF7DFF902D200200E4901E0DAE93D
:101070000801CAE9080100220B4BDAE90881404661
:10108000FFF7B8F902D20020074901E0DAE90801C8
:10109000CAE90801DDE90801FFF78CF90BB0BDE8EA
:1010A000F08F000000C0824000C082C07047000086
:1010B00029B1064AD2690243044BDA6104E0034ACB
:1010C000D2698243014BDA61704700000010024090
:1010D00029B1064A92690243044B9A6104E0034A2B
:1010E00092698243014B9A617047000000100240F0
:1010F00030B500210022002400232D4D6D6805F03D
:101100000C0121B1042905D0082923D105E0294D7E
:10111000056022E0274D05601FE0254D6D6805F450
:101120007012234D6D6805F48034022505EB924260
:101130001CB9214D554305600BE01D4D6D6805F44C
:1011400000351DB11C4D5543056002E0194D554356
:10115000056002E0174D056000BF00BF144D6D68CB
:1011600005F0F0010909154D6B5C0568DD4045602F
:101170000F4D6D6805F4E061090A104D6B5C456820
:10118000DD4085600A4D6D6805F46051C90A0B4D5C
:101190006B5C4568DD40C560054D6D6805F44041F8
:1011A000890B074D6B5CC568B5FBF3F5056130BD78
:1011B0000010024000127A0000093D0020000020CB
:1011C00030000020704710B500F002F810BD00009C
:1011D0000CB50020019000903348006840F4803046
:1011E0003149086000BF3048006800F400300090CA
:1011F0000198401C0190009818B90198B0F5A06FB3
:10120000F1D12948006800F4003010B101200090AD
:1012100001E0002000900098012843D12348006895
:1012200040F01000214908600846006820F00300E3
:1012300008600846006840F0020008601A484068EC
:10124000194948600846406848600846406840F4CC
:10125000806048600846406820F47C10486008467A
:10126000406840F4E81048600846006840F080702C
:10127000086000BF0C48006800F000700028F9D03A
:101280000948406820F00300074948600846406864
:1012900040F00200486000BF0348406800F00C00C6
:1012A0000828F9D10CBD00000010024000200240C7
:1012B000042808D14FF0E021096941F004014FF002
:1012C000E022116107E04FF0E021096921F00401FB
:1012D0004FF0E022116170477047000010B51348CD
:1012E000006840F001001149086008464068104954
:1012F00008400E494860084600680E4908400B49FE
:1013000008600846006820F48020086008464068AD
:1013100020F4FE0048604FF41F008860FFF753FF81
:101320004FF000600449086010BD0000001002404A
:101330000000FFF8FFFFF6FE08ED00E07FB5054670
:101340000C460121C802FFF7C3FEADF80850ADF806
:1013500004400020ADF80A00ADF806008DF80C003E
:1013600001A9114800F0A8F901210F4800F0D6F8B2
:10137000012241210C4800F0F4F84FF4A060FFF77F
:10138000BBFB19208DF8000000208DF801008DF8BE
:10139000020001208DF803006846FFF775FB01216C
:1013A000014800F0C1F87FBD002C014010B50121BB
:1013B0000D4800F0C5F8A8B10C480068012804D118
:1013C0000B480088401C0A490880094800886428A6
:1013D00004DDFFF781FA0020054908800121024859
:1013E00000F09FF810BD0000002C01400400002018
:1013F0005400002030B589B005460C46012102207A
:10140000FFF756FE01210420FFF762FEC020ADF871
:10141000200018208DF8230003208DF8220008A951
:101420001748FFF7DAF8ADF81850ADF8144000206F
:10143000ADF81A00ADF8160005A9124800F03CF905
:101440006020ADF804000120ADF806000020ADF8E2
:101450000C0001A90B4800F08DF86020ADF80400E5
:101460000120ADF806000020ADF80C0001A90548E8
:1014700000F0CCF80121034800F056F809B030BD67
:10148000000801400004004030B589B005460C4614
:1014900001210420FFF70CFE01210820FFF718FEB0
:1014A000C020ADF8200018208DF8230003208DF80F
:1014B000220008A91748FFF790F8ADF81850ADF8CA
:1014C00014400020ADF81A00ADF8160005A9124826
:1014D00000F0F2F86020ADF804000120ADF806003D
:1014E0000020ADF80C0001A90B4800F043F8602083
:1014F000ADF804000120ADF806000020ADF80C00A6
:1015000001A9054800F082F80121034800F00CF819
:1015100009B030BD000C014000080040CA430282FF
:101520007047CA430282704721B1028842F001022B
:10153000028004E002884FF6FE731A400280704772
:1015400030B50246002000230024158A05EA010375
:10155000958905EA010413B10CB1012000E00020D7
:1015600030BD1AB183890B43838102E083898B43A9
:101570008381704770B5002400220023058C4FF64C
:10158000FE7635400584028C8388048B4FF68F7578
:101590002C40B51E2C400D882C43751E2A400D8909
:1015A0002A434D882A43144DA8420BD0134DA8421C
:1015B00008D0134DA84205D0124DA84202D0124DBA
:1015C000A84213D14FF6F7752A404D892A434FF6AA
:1015D000FB752A408D882A434FF6FF652B404FF656
:1015E000FF552B408D892B43CD892B43838004836A
:1015F000CD888586028470BD002C014000340140F6
:1016000000400140004401400048014070B5002402
:1016100000220023058C4FF6EF7635400584028CBE
:101620008388048B48F6FF752C404FF6FF452C400D
:101630000D884FF6FF7606EA05252C434FF6DF7539
:101640002A400D8906EA05152A434D8806EA051544
:101650002A43154DA84202D0144DA8421DD14FF681
:101660007F752A404D894FF6FF7606EA05152A4315
:101670004FF6BF752A408D8806EA05152A434FF6B6
:10168000FF352B404FF2FF752B408D8906EA85050B
:101690002B43CD8906EA85052B4383800483CD88BF
:1016A0000587028470BD0000002C01400034014019
:1016B0008186704701877047002202881D4B98423F
:1016C0000ED01D4B98420BD0B0F1804F08D01B4B71
:1016D000984205D01A4B984202D01A4B984204D136
:1016E0004FF68F731A404B881A43174B984207D016
:1016F000164B984204D04FF6FF431A40CB881A434A
:1017000002808B8883850B8803850A4B98420BD017
:10171000094B984208D00E4B984205D00D4B984289
:1017200002D00D4B984201D10B7A038601238382AC
:1017300070470000002C01400034014000040040CC
:1017400000080040000C0040001000400014004061
:1017500000400140004401400048014010B540F203
:101760002551094800F08BF868B1074800F042F9AC
:1017700004462046FFF74AFBFFF7E8FB40F22551FD
:10178000014800F061F810BD0038014008B540F292
:101790002551264800F073F8002846D0234800F071
:1017A00029F92349087008460078592806D12148AC
:1017B000007818B901201F49087036E01C480078ED
:1017C000592807D11B480078012803D10220194964
:1017D00008702AE017480078022807D114480078DA
:1017E000154908700320134908701EE0114800785D
:1017F00003281AD10E480078104908700E48007866
:10180000097840EA01200E490880084600880D4901
:10181000088010200323009008460288042100203D
:10182000FFF786FA00200349087008BD0048004011
:10183000410000204400002042000020430000201E
:10184000460000203600002010B50022002340F69C
:101850006A14A14200D100BF0A1201249440A3B22D
:10186000DC43048010BD21B1828942F400528281A0
:1018700004E082894DF6FF731A408281704770B58B
:101880000246002400230025002040F66A16B142DB
:1018900000D100BFC1F3421501F01F03012606FA73
:1018A00003F3012D02D19689334006E0022D02D1C7
:1018B000168A334001E0968A33400C12012606FA5C
:1018C00004F41688344013B10CB1012000E000206C
:1018D00070BDF0B50346002400260025002040F628
:1018E0006A17B94200D100BF1846C1F3421401F093
:1018F0001F06012707FA06F5012C01D10C3004E080
:10190000022C01D1103000E014301AB107682F43C7
:10191000076002E00768AF430760F0BD2DE9F047BC
:1019200086B005460E460024A24600BFA146002709
:10193000B08900B100BF2F462C8A4CF6FF700440DE
:10194000F08804432C82AC894EF6F3100440B08832
:1019500031890843718908430443AC81AC8A4FF64E
:10196000FF400440B0890443AC8201A8FFF7C0FBEC
:101970001F48874202D1DDF810A001E0DDF80CA07D
:10198000A88900F4004040B10AEBCA0000EB0A103D
:1019900031684900B0FBF1F807E00AEBCA0000EB40
:1019A0000A1031688900B0FBF1F86420B8FBF0F050
:1019B00004012009642101FB1089A88900F400407A
:1019C00040B1322000EBC900B0FBF1F000F007009D
:1019D000044308E0322000EB09106421B0FBF1F071
:1019E00000F00F0004432C8106B0BDE8F087000032
:1019F0000038014001468888C0F30800704700BFE6
:101A0000FEE700002DE9F04105462C464FF4005159
:101A10001248FEF776FE00261CE0274607F08007F6
:101A2000802F04D179010D48FEF76DFE04E04FF4DC
:101A300080510A48FEF765FE6006040E4FF400511F
:101A40000648FEF760FE4FF400510448FEF759FEC9
:101A5000701CC6B2082EE0DBBDE8F081000C01402E
:101A600010B50446FEF754FE7820FFF7CBFFFEF7D3
:101A70007BFE0020FFF7C6FFFEF776FE2046FFF74D
:101A8000C1FFFEF771FEFEF75BFE10BD10B5044608
:101A9000FEF73EFE7820FFF7B5FFFEF765FE40201B
:101AA000FFF7B0FFFEF760FE2046FFF7ABFFFEF743
:101AB0005BFEFEF745FE10BD02E008C8121F08C11C
:101AC000002AFAD170477047002001E001C1121FBF
:101AD000002AFBD17047000010B56FF00400FFF73B
:101AE000E7FB0A4800680A49B0FBF1F009490870B1
:101AF0000846007800EB4001C1EBC0104FF6FF71C3
:101B000001EAC0000449088010BD00000800002060
:101B100000127A001C0000201E0000200146114A1D
:101B200012884A434FF0E0235A6100229A611A4614
:101B3000126942F001021A6100BF4FF0E022106901
:101B400000F001021AB100F48032002AF5D04FF003
:101B5000E022126922F001024FF0E0231A61002214
:101B60009A6170471E00002010B520210E48FEF734
:101B7000CAFD4FF4FA70FFF7D1FF4FF480410B48D4
:101B8000FEF7BFFD4FF4FA70FFF7C8FF4FF4804136
:101B90000648FEF7B8FD20210348FEF7B2FD642099
:101BA000FFF7BCFF10BD000000100140000C014019
:101BB0001FB54FF4A060FEF79FFFFFF78DFFFEF704
:101BC00047FEFEF7E9FC6A48FFF7D2F969496A481F
:101BD000CDE9021069496A486A4A6B4BCDE90010A9
:101BE0006348FFF7D8F94FF4165000F087F9FEF775
:101BF000ADFFFEF78BFFC820FFF790FF632140F297
:101C0000CF20FFF79BFBFEF7DFFE092141F61F40C7
:101C1000FFF7F0FB40F2CF2140F2CF70FFF734FC2A
:101C200091215A48FFF744FD96215848FFF742FD9D
:101C3000C820FFF773FF99E00120FEF7A3FD0128FC
:101C40005CD153480068012858D14FF4FA70FFF76F
:101C500065FFC8214D48FFF72DFD4FF42F70FFF7AA
:101C60005DFF64214948FFF725FD40F2DC50FFF796
:101C700055FF96214548FFF71DFD4FF4FA70FFF719
:101C80004DFF0321012000F08BF840F2DC50FFF7FC
:101C900045FF4FF41670FFF741FF0021012000F0CF
:101CA0007FF840F2DC50FFF739FF40F2DC50FFF7DD
:101CB00035FF40F2DC50FFF731FF40F2DC50FFF718
:101CC0002DFF0021084600F06BF882212F48FFF716
:101CD000EFFC40F2DC50FFF721FF10232DA204217E
:101CE0003220FFF769F800F0CBF80020284908609F
:101CF000102329A204213220FFF75EF80120FEF70D
:101D000041FD022820D12248006801281CD18221EF
:101D10001E48FFF7CDFC96211C48FFF7CBFC40F294
:101D2000DC50FFF7FBFE10231AA204213220FFF73C
:101D300043F800F0A5F8002015490860102316A20A
:101D400004213220FFF738F80120FEF71BFD03289D
:101D500002D10120114908600120FEF713FD04287B
:101D600001D1FFF701FF6420FFF7D8FE64E7000010
:101D700058000020FCA9F1D24D6260BF7B14AE4731
:101D8000E17AA43F9A9999999999C93F000800402E
:101D9000000000204F4E00004F4646000400002087
:101DA00070B505460C4615B1012D24D110E0012176
:101DB0002948FEF7A8FC01212848FEF7A4FC0021D1
:101DC0002748FFF775FC00212548FFF773FC13E057
:101DD00001212148FEF795FC01212048FEF791FCE6
:101DE0004FF4FA711E48FFF763FC4FF4FA711C4878
:101DF000FFF760FC00E000BF00BF34B1012C0DD044
:101E0000022C14D0032C24D11AE002211548FEF72D
:101E10007AFC20211048FEF774FC1BE002211148D7
:101E2000FEF76FFC20210C48FEF76DFC12E002214A
:101E30000C48FEF766FC20210748FEF762FC09E02B
:101E400002210848FEF75FFC20210348FEF75BFCF7
:101E500000E000BF00BF70BD00080140000C014061
:101E6000000400400010014010B50246012000E0CF
:101E700050430B1EA1F10104E1B2F9D110BD0000E5
:101E800010B54FF400411B48FEF73DFC40F2DC501A
:101E9000FFF744FE40F2DC50FFF740FE40F2DC501A
:101EA000FFF73CFE40F2DC50FFF738FE4FF40041F4
:101EB0001048FEF726FC20210F48FEF724FC4FF4C3
:101EC000FA70FFF72BFE4FF480410A48FEF719FC29
:101ED0004FF4FA70FFF722FE4FF480410548FEF7F9
:101EE00012FC20210448FEF70CFC6420FFF716FECC
:101EF00010BD0000000C01400010014010B586B07C
:101F00000446012144F20400FFF7E2F84FF40070A8
:101F1000ADF8140003208DF8160018208DF8170076
:101F200005A91D48FEF759FB4FF48060ADF8140079
:101F300004208DF8170005A91748FEF74EFB252051
:101F40008DF8000001208DF8010003208DF80200BB
:101F500001208DF803006846FEF796FD01940020ED
:101F6000ADF80800ADF80A00ADF80C00ADF81000AF
:101F70000C20ADF80E0001A90848FFF7CFFC0122A4
:101F800040F225510548FFF7A4FC01210348FFF763
:101F90006AFC06B010BD0000000801400038014096
:101FA0000000000000000000002F000000000700FB
:101FB000070000147F147F1400242A7F2A12006275
:101FC0006408132300364955225000000503000021
:101FD00000001C224100000041221C000014083EA9
:101FE00008140008083E0808000000A0600000086F
:101FF00008080808000060600000002010080402C3
:10200000003E5149453E0000427F40000042615180
:102010004946002141454B31001814127F1000271A
:1020200045454539003C4A494930000171090503DD
:1020300000364949493600064949291E000036360E
:102040000000000056360000000814224100001471
:10205000141414140000412214080002015109064E
:1020600000324959513E007C1211127C007F4949CF
:102070004936003E41414122007F4141221C007F00
:1020800049494941007F09090901003E4149497A0E
:10209000007F0808087F0000417F41000020404188
:1020A0003F01007F08142241007F40404040007FF4
:1020B000020C027F007F0408107F003E4141413E38
:1020C000007F09090906003E4151215E007F091980
:1020D00029460046494949310001017F0101003F7D
:1020E0004040403F001F2040201F003F4038403FFD
:1020F0000063140814630007087008070061514961
:10210000454300007F41410000552A552A550000F3
:1021100041417F0000040201020400404040404071
:10212000000001020400002054545478007F484409
:10213000443800384444442000384444487F003840
:102140005454541800087E0901020018A4A4A47C69
:10215000007F080404780000447D40000040808433
:102160007D00007F102844000000417F4000007C7B
:1021700004180478007C0804047800384444443887
:1021800000FC242424180018242418FC007C0804D3
:10219000040800485454542000043F444020003CAC
:1021A0004040207C001C2040201C003C4030403C33
:1021B000004428102844001CA0A0A07C00446454C3
:1021C0004C44141414141414000000000000000007
:1021D0000000000000000000000000F80000000007
:1021E000000000333000000000100C06100C060048
:1021F000000000000000000040C07840C0784000AF
:10220000043F04043F040400007088FC0830000010
:10221000001820FF211E0000F008F000E018000068
:1022200000211C031E211E0000F008887000000021
:102230001E2123241927211010160E000000000073
:102240000000000000000000000000E01804020090
:10225000000000071820400000020418E000000001
:102260000040201807000000404080F080404000FF
:102270000202010F01020200000000F00000000055
:102280000101011F01010100000000000000000029
:1022900080B070000000000000000000000000009E
:1022A0000001010101010101000000000000000027
:1022B00000303000000000000000000080601804C2
:1022C000006018060100000000E010080810E0009F
:1022D000000F102020100F00001010F80000000068
:1022E0000020203F202000000070080808887000AF
:1022F000003028242221300000300888884830002F
:102300000018202020110E000000C02010F800004E
:1023100000070424243F240000F8088888080800E7
:102320000019212020110E0000E0108888180000FC
:10233000000F112020110E0000380808C8380800CE
:102340000000003F0000000000708808088870004E
:10235000001C222121221C0000E010080810E000CF
:102360000000312222110F00000000C0C000000058
:10237000000000303000000000000080000000007D
:102380000000806000000000000080402010080075
:10239000000102040810200040404040404040003E
:1023A0000404040404040400000810204080000019
:1023B0000020100804020100007048080808F0001E
:1023C0000000003036010000C030C828E810E000EE
:1023D0000718272423140B000000C038E000000079
:1023E000203C23020227382008F8888888700000E3
:1023F000203F202020110E00C030080808083800B7
:10240000071820202010080008F808080810E0002D
:10241000203F202020100F0008F88888E8081000CE
:10242000203F20202320180008F88888E8081000A2
:10243000203F200003000000C030080808380000DA
:1024400007182020221E020008F808000008F808DB
:10245000203F210101213F20000808F80808000062
:102460000020203F2020000000000808F808080095
:10247000C08080807F00000008F888C0281808000D
:10248000203F20012638200008F808000000000046
:10249000203F20202020300008F8F800F8F808003D
:1024A000203F003F003F200008F830C00008F80837
:1024B000203F200007183F00E01008080810E00047
:1024C0000F10202020100F0008F808080808F0005E
:1024D000203F210101010000E01008080810E00081
:1024E0000F18242438504F0008F888888888700016
:1024F000203F2000030C30200070880808083800B6
:102500000038202121221C00180808F808081800AB
:102510000000203F2000000008F808000008F8082C
:10252000001F202020201F000878880000C83808DD
:10253000000007380E010000F80800F80008F80055
:10254000033C0700073C03000818688080681808EF
:1025500020302C03032C30200838C800C83808006D
:102560000000203F2000000010080808C8380800BC
:102570002038262120201800000000FE0202020060
:102580000000007F40404000000C30C00000000010
:10259000000000010638C00000020202FE00000038
:1025A000004040407F0000000000040202020400DE
:1025B000000000000000000000000000000000001B
:1025C0008080808080808080000202040000000003
:1025D00000000000000000000000808080800000FB
:1025E0000019242222223F2008F8008080000000E9
:1025F000003F112020110E000000008080800000AC
:10260000000E112020201100000000808088F800BA
:10261000000E112020103F200000808080800000EC
:10262000001F222222221300008080F08888881850
:102630000020203F2020000000008080808080005B
:10264000006B94949493600008F8008080800000F0
:10265000203F210000203F200080989800000000CB
:102660000020203F202000000000008098980000FB
:1026700000C08080807F000008F80000808080001B
:10268000203F24022D302000000808F80000000040
:102690000020203F202000008080808080808000FB
:1026A000203F20003F20003F80800080808000008D
:1026B000203F210000203F2000008080808000001B
:1026C000001F202020201F0080800080800000004C
:1026D00080FFA12020110E0000000080808080007B
:1026E000000E112020A0FF8080808000808080006C
:1026F00020203F2120000100000080808080800099
:102700000033242424241900008080E0808000000D
:102710000000001F2020000080800000008080005A
:10272000001F202020103F208080800000808080BB
:1027300000010E300806010080800080008080804B
:102740000F300C030C300F00008080008080800070
:102750000020312E0E31200080808000008080809B
:1027600080818E701806010000808080808080004B
:102770000021302C2221300000000000807C020269
:1027800000000000003F404000000000FF0000008B
:1027900000000000FF0000000002027C800000003A
:1027A0000040403F00000000000601010202040456
:1027B0000000000000000000D827000800000020F2
:1027C00058000000B81A00083028000858000020FF
:1027D00058040000C81A00080100000000000000B2
:1027E00000A24A04000000000000000001020304EF
:1027F00006070809000000000000000001020304B1
:10280000010203040607080902040608010000008B
:102810000000000050503C503C0000000000000050
:102820000000000091000000960000000000000081
:0400000508000145A9
:00000001FF
